:020000040800F2
:10000000182A0020ED0100089D190008AB17000810
:1000100099190008E9150008A52D00080000000046
:10002000000000000000000000000000652A000839
:10003000ED150008000000006D020008512B0008BB
:10004000070200080702000807020008070200086C
:10005000070200080702000807020008070200085C
:10006000070200080702000807020008070200084C
:10007000070200080702000807020008070200083C
:10008000070200080702000807020008070200082C
:10009000070200080702000807020008070200081C
:1000A000070200080702000807020008070200080C
:1000B00007020008070200080702000807020008FC
:1000C00007020008070200080702000807020008EC
:1000D00007020008070200080702000807020008DC
:1000E0007916000807020008070200080702000846
:1000F00007020008070200080702000807020008BC
:1001000007020008070200080702000807020008AB
:10011000070200080702000807020008070200089B
:10012000070200080702000807020008070200088B
:1001300000F002F800F04AF80AA090E8000C8244AF
:100140008344AAF10107DA4501D100F03FF8AFF28C
:10015000090EBAE80F0013F0010F18BFFB1A43F0A5
:1001600001031847084F0000284F0000103A24BF31
:1001700078C878C1FAD8520724BF30C830C144BF0C
:1001800004680C607047000000230024002500264E
:10019000103A28BF78C1FBD8520728BF30C148BFEA
:1001A0000B607047662904F08F85642900F0A080F9
:1001B000002070471FB500F025FC0400002000213E
:1001C00003F04CFFE0601FBD10B510BD00F03AFD1C
:1001D0001146FFF7EFFF03F0A5F900F058FD03B457
:1001E000FFF7F2FF03BC02F070FE000009488047F1
:1001F00009480047FEE7FEE7FEE7FEE7FEE7FEE709
:10020000FEE7FEE7FEE7FEE704480549054A064B20
:1002100070470000592B000831010008181C00200D
:10022000182A0020181E0020181E0020EFF310804E
:1002300072B6704780F3108870471D481D490160F1
:10024000002080F309881C48012101701B484FF0F1
:100250008051016062B6FEE718484FF0805101609E
:10026000704716484FF080510160704772B6EFF347
:10027000098028B1203880E8F00F1149096808602A
:1002800000B5104880475DF804EB0F480F490A7825
:1002900002700B480E490A680260106890E8F00F7F
:1002A000203080F309884EF0040E62B6704700BF1C
:1002B00020ED00E00000FFFF5A00002004ED00E008
:1002C00060000020752100084F0000205000002031
:1002D00068000020704700000FB4044910B503AA5D
:1002E000029800F07DFB10BC5DF814FB04000020B8
:1002F0002DE9F0410646002410687529314616A5FF
:1003000010D0AFF30080002802DA404213A507E0C6
:1003100031688A0701D512A502E0490704D511A565
:10032000012401E0AFF3008000210A2206F1240736
:1003300009E0B0FBF2FCB0FBF2F302FB1C00303032
:1003400078541846491C0028F3D123462A463046E3
:10035000BDE8F04100F0DBB8000000002D00000017
:100360002B000000200000002DE9F05F89460446C4
:100370004FF0000ADFF874B1FB44C0F820A020461B
:10038000E1688847002874D0252806D0D4E90121E7
:100390009047206A401C2062F1E700265F46204615
:1003A000E16888472028054607DB312D05D27819FA
:1003B00010F8200C08B10643F1E7B00701D526F08C
:1003C0000406C4F81CA00027C4F818A02A2D09D0E0
:1003D000284602F073FD38B304EB8708303DC8F8B7
:1003E000185019E059F8041B204604EB870291616C
:1003F000E1688847012F054618D1E069002820DA16
:1004000026F020061DE0D8F8180000EB800005EB70
:1004100040003038C8F818002046E1688847054693
:1004200002F04CFD0028EED1012F0AD02E2D08D16C
:100430002046E16888477F1C0546022F46F02006CB
:10044000C4DBA069002803DA404246F00106A0613F
:10045000F00701D026F010066C2D0BD0682D09D0C6
:100460004C2D39D06A2D35D0742D35D07A2D33D01E
:1004700016E038E0E1682F4620468847B842054636
:1004800009D16C2F26D04FF48060E16806432046E6
:100490008847054604E06C2F1AD04FF4807006435D
:1004A0000DB3A5F14100192802D8203546F40066A5
:1004B0004A462946204626604E46FFF773FE80B125
:1004C00001280BD0F61D26F0070000F1080956E7B9
:1004D0004020E4E78020D8E70020D6E706F10409B1
:1004E0004DE7284652E7206ABDE8F09FB44B000074
:1004F000704770477047704710B500F087FA006882
:1005000010BD10B5044600F081FA046010BD2DE95D
:10051000F0470D4699469246044600F124080168CA
:10052000880604D5E06921F01001216000E0012077
:10053000A84201DD471B00E00027A1697A1902EB00
:100540000900081AA0612078C00602D42046AFF343
:100550000080002608E0D4E901211AF8060090473F
:10056000206A401C761C20624E45F4DB2078C006D1
:100570000AD52046AFF3008006E0D4E901213020FF
:100580009047206A401C2062381EA7F10107F4DC66
:1005900007E0D4E9012118F805009047206A401CC3
:1005A0002062281EA5F10105F3DC2046AFF3008090
:1005B0002078000602D50220BDE8F0870120FBE785
:1005C00070472DE9FF4F0C461E464FF0FF378BB0AA
:1005D000D2E90001DDF860800A908A46C1F30A552D
:1005E00005B93D46002108464FF00000BAF1000F62
:1005F00000F4400005DA00EB80004FF4400101EA0E
:1006000050004FEA9059B9F1010F00DDB9460A9840
:1006100050EA4A000ED044F61050A5F2FF3545438B
:100620002F14B8F1000F1ED07542291E1EDDC9F12E
:1006300000021CE0B8F1010F4FF0000001D03021A2
:1006400003E0F24305E02154401CB042FBDB30469E
:100650000022002121540B99C1F80880C1E9002033
:100660000FB0BDE8F08FBD1B6D1CDEE74A4600DA17
:10067000694206A800F06CFA06AB93E8070003ABEA
:1006800083E8070050460A9900F04AFB8DE807000E
:10069000A0F500501F3800900398002D0ADD42F2AB
:1006A0001F014A460844002303A90390684600F04E
:1006B000B3FD09E0A0F500504A461F38002303A906
:1006C0000390684600F0BDFD8DE807000004000CB3
:1006D00003D04FF0FF30410800E01046B8F1000FA2
:1006E00003D00022009215461EE0751E05D400F0CE
:1006F00091F9303262556D1EF9D5B3460122084397
:1007000002D000227F1C04E02078302801D1002292
:100710007F1E002A099784D01DE0112D07DA00F012
:1007200079F9303262556D1C50EA0102F5D1084367
:1007300002D00098C8B10EE00021681E05E0235CDD
:10074000625C63542254401E491C8142F7DBAB4675
:10075000A81B401E0990002004F80B000B98099A72
:10076000C0F80880C0E9002B7AE711264FF0000896
:1007700057E72DE9F04F88460446D21D22F00701C5
:1007800091B0D1E90001CDE90A0102F00DFB02466A
:100790000B98C00F01D02D2007E02068810701D5FC
:1007A0002B2002E0202101EAC000032A099001D099
:1007B000072A05DB03464146204600F089F90BE194
:1007C0002078800601D5E06900E00620B8F1650FC9
:1007D000814606D0B8F1660F18D0B8F1670F70D116
:1007E00031E00020B9F1110F009001DB112301E08D
:1007F00009F101030AAA01A90CA8FFF7E2FEDDE94D
:100800000C70002609F10105834647E001204B46A4
:1008100000904FF000470AAA01A90CA8FFF7D1FEEB
:10082000DDE90DB00C995D46002610B909F1010013
:100830000D18B9EB050003D4C0F1FF3609F101052D
:10084000A5EB09002BE0B9F1010F01DA4FF0010926
:100850000020B9F1110F0090484601DD112300E09E
:1008600003460AAA01A90CA8FFF7ABFEDDE90C704C
:100870004D4600268346207800070AD4AB4500DAAF
:100880005D4601A8012D04DD411911F8011C302934
:1008900007D04F4502DA17F1040F04DA012082462F
:1008A0000FE06D1EEEE7002F02DCED1B3E4403E07F
:1008B000781CA84200DD7D1CB81B00F1010A4FF036
:1008C00000472078000703D4AA4501DB4FF0FF3A28
:1008D0000021B7F1004F0DF143088DF8431024D0EB
:1008E00002202B23002F01DA7F422D230A21021E32
:1008F000A0F1010000DC5FB197FBF1FC97FBF1F286
:1009000001FB1C7C17460CF1300C08F801CDEEE71A
:10091000A8F1010003702188090501D5452100E0F7
:100920006521A0F1010800F8011C09980FA9A1EBAD
:100930000807FF1D00B10120411901EBEA70A16910
:100940003844081A401EA0612078C00602D4204610
:10095000AFF30080099828B1D4E901219047206ABB
:10096000401C20622078C00622D52046AFF30080CC
:100970001EE0002E04DBB34502DD01A8805D00E02F
:100980003020D4E901219047206A401C2062761C67
:10099000AAF101005FEA000A0AD100F033F8C0684A
:1009A0000168405CD4E901219047206A401C206224
:1009B000281EA5F10105DCDC07E0D4E9012118F8C7
:1009C000010B9047206A401C2062381EA7F10107E6
:1009D000F3DC2046AFF30080032011B041E60000B5
:1009E000074B70B50D467B4400F05FF8044628467F
:1009F00000F020F910B14FF0FF3070BD204670BDFF
:100A0000172B000000487047D81B00200048704793
:100A1000B81B002030B5B0F10A024FEA900E71F118
:100A200000034EEA817EB0EB0E0061EB91014FEACC
:100A3000101E4EEA017E10EB0E0041EB11114FEA41
:100A4000102E4EEA016E10EB0E0041EB11214FEA21
:100A5000104E4EEA014E10EB0E0041EB11414018D2
:100A600041F100014FEAD00040EA41704FEAD10164
:100A700010EB80054FEA810444EA907444EB0104D2
:100A80006D1944EB0404521BA3414FF0000348BF0F
:100A90000A3200D530BD401C41F1000130BD0000DC
:100AA00001694A1C02610878704700B58FB0CDE932
:100AB00001310021059105497944CDE90310114622
:100AC0006846FFF751FC0FB000BD0000E5FFFFFFD7
:100AD0002DE9F0411F46044603260168072A01F468
:100AE000006004DB08B116A505E016A503E008B117
:100AF00015A500E015A521F010002060A069C01E1A
:100B0000A0610FB1401EA0612046AFF300804FB13D
:100B1000D4E9012138469047206A401C2062C01C5D
:100B2000206206E0206AFAE7D4E9012115F8010BFA
:100B30009047761EF8D22046AFF30080BDE8F081E2
:100B40004E414E006E616E00494E4600696E660071
:100B50002DE9F047814616468AB0354878440DC8DD
:100B60008DE80D0032487844801C03AC0DC884E841
:100B70000D0041F69B300844372190FBF1F290FBC9
:100B8000F1F5A5F1800501FB12041B3C02D564427E
:100B9000012000E00020DFF898A080460027FA44FA
:100BA000AAF1BE0A0EE0E0070AD03246684607EB1B
:100BB000470101230AEB810100F043FB8DE80700A8
:100BC00064107F1C002CEED1194F7F44AE3F19E01A
:100BD000E80715D007EB04100DF1180A90E80E0095
:100BE0008AE80E00C068F04201D198190890324698
:100BF000012306A903A800F024FB03AB83E8070048
:100C00006D10641C002DE3D14FF00103324669469C
:100C1000B8F1000F03A802D000F0FEFA01E000F0E6
:100C200010FBC9E90001C9F808200AB0BDE8F08747
:100C3000F4440000007B00F08000704700487047DB
:100C4000B81B00207546FFF7F9FFAE460500694660
:100C5000534620F00700854618B020B5FFF7D4FAB8
:100C6000BDE820404FF000064FF000074FF00008AD
:100C70004FF0000B21F00701AC46ACE8C009ACE82E
:100C8000C009ACE8C009ACE8C0098D46704710B592
:100C90000446AFF300802046BDE81040FFF79FBA3E
:100CA0004FF0013C50F8042B51F8043B9A4221D1FB
:100CB000A2EB0C03934313EACC1317D150F8042B87
:100CC00051F8043B9A4215D1A2EB0C03934313EA6B
:100CD000CC130BD150F8042B51F8043B9A4209D1A4
:100CE000A2EB0C03934313EACC13DBD04FF00000CC
:100CF000704700BFD01A01BAB1FA81F101F01801B2
:100D000022FA01F0CB40C1F12001DBB2C0B2C01A1F
:100D10002CFA01F3D11A914311EAC311E6D17047BD
:100D20005FEA400C08BF91F0000F4FEA8C234FEAB6
:100D3000C12243EA51514FEA1C5018BF00F5F04060
:100D40004FEA300018BF41F000415FEA6C5C00F0F0
:100D50002980BCF1FF3F08BF40F080407047130C72
:100D600006BF12044FF0100C4FF0000C130E04BF1E
:100D700012020CF1080C130F04BF12010CF1040C49
:100D8000930F04BF92000CF1020CD30F04BF52006A
:100D90000CF1010C11464FF00002A0F11F00A0EB76
:100DA0000C00704711F0004F08BF704731F0004150
:100DB0003FF4D5AF0B0C06BF09044FF0100C4FF0F9
:100DC000000C0B0E04BF09020CF1080C0B0F04BF42
:100DD00009010CF1040C8B0F04BF89000CF1020C0B
:100DE000CB0F04BF49000CF1010CCCF12003A0EBA8
:100DF0000C0022FA03F302FA0CF241EA030100F1BB
:100E00000100704720F07F4C80EA030023F07F4709
:100E1000ACEB070303F57C5300F0004003F1FF0344
:100E20002DE980494FEA154B09B44FEA144325EAEE
:100E30000B4E24EA03480FF2042606EB1327490859
:100E40003E785FEA320203FB0667C7F5000707FB3F
:100E500006F64FEA54374FEAD64606F1020607FB7C
:100E6000066CCCF1005C4FEA1C472CEA074C07FBF0
:100E700006F40CFB06F504EB15464FEA961634BF54
:100E800000204FF000404FEAD13706FB07FC4FEA45
:100E90001C4C0CFB0BF7D21B03FB0CF761EB07019F
:100EA0000CFB0EF7B0EB074072EB17420CFB08F798
:100EB00034BFA2EB0742B2EB074261EB17414FEAA6
:100EC0000C444FEA910706FB07FC4FEA1C4C0CFB55
:100ED0000BF7B0EBC74072EB573203FB0CF734BF94
:100EE000A2EBC742B2EBC74261EB57310CFB0EF7E6
:100EF000B0EBC70072EB57720CFB08F734BFA2EBE4
:100F0000C702B2EBC70261EB5771039F4FEA8161E1
:100F100041EA921104EBCC044FEAD1374FEA8262E6
:100F200006FB07FC42EA90124FEA80604FEA1C4C35
:100F30000CFB0BF7D21B03FB0CF761EB07010CFB5F
:100F40000EF7B0EB074072EB17420CFB08F734BF0B
:100F5000A2EB0742B2EB074261EB17414FEA8C5517
:100F60004FEA910704EB9C2406FB07FC4FEA1C4C5C
:100F70000CFB0BF7B0EBC74072EB573203FB0CF7DF
:100F800034BFA2EBC742B2EBC74261EB57310CFB57
:100F90000EF7B0EBC70072EB57720CFB08F734BFCB
:100FA000A2EBC702B2EBC70261EB577115EB4C2500
:100FB0004FEA816141EA92114FEA82624FEAD137EA
:100FC00042EA901206FB07FC44F100044FEA8060FD
:100FD0004FEA1C4C0CFB0BF7D21B03FB0CF761EB2D
:100FE00007010CFB0EF7B0EB074072EB17420CFB4E
:100FF00008F734BFA2EB0742B2EB074261EB17419F
:1010000015EB1C154FEA813141EA92414FEA8232D9
:1010100042EA90424FEA80304FEA0C7644F10004F5
:1010200048EA03434EEA0B484FF0000EB2EB080CBF
:1010300071EB030724BF624639464EEB0E0E4FF0AC
:10104000000B0018524149414BEB0B0BB2EB080C63
:1010500071EB03077BF1000B24BF624639464EEB70
:101060000E0E4FF0000B0018524149414BEB0B0B99
:10107000B2EB080C71EB03077BF1000B24BF624657
:1010800039464EEB0E0E51EA020718BF46F0010634
:1010900016EB0E7655F1000254F1000103D5BDE8C0
:1010A0008901BDE80088BDE88901BDE80048B6199E
:1010B000524141EB0101A3F10103704780807F7E23
:1010C0007D7C7B7A797877767675747372717170BE
:1010D0006F6E6E6D6C6C6B6A6A6968686766666570
:1010E0006464636362616160605F5F5E5E5D5D5CFE
:1010F0005C5B5B5A5A59595858575756565555556F
:101100005454535352525251515050504F4F4F4ECE
:101110004E4D4D4D4C4C4C4B4B4B4A4A4A4949491C
:10112000484848474747474646464545454444445E
:10113000444343434342424242414141002B9C4687
:1011400030D477002BD01CB54FEA370703B44FF0EB
:1011500010004FF01001BAF1000F06D0BCF1000FE3
:10116000DCBF40F0080040F008014FF000000FBC69
:10117000BDE810400BF1010BBBF1010F08BF5FEAA6
:10118000170722BF12F1010211F101014FF00041D6
:1011900043F1000300F0004043EA00007047F9D338
:1011A0005708D0E746EA064613F1400F4FEA1646C5
:1011B0001FDD13F1200FDFBF16430A460021203345
:1011C0005B42BED0C3F1200746EA064602FA07F7A3
:1011D0004FEA164646EA0706C3F1200722FA03F251
:1011E00001FA07F721FA03F14FF0000342EA070280
:1011F000A7E746EA020646EA06464FEA164646EAE8
:101200000106BCBF46EA0646360C4FF000034FF01D
:1012100000024FF0000194E72DE9804C9A46934676
:1012200070B491E8380007C831EA400C48BF34EA8E
:10123000430C03D5FFF7E6FDFFF780FFF0BCBDE8E8
:10124000008C2DE9804C9A46934670B491E83800A2
:1012500007C810F0804F08BF13F0804F03D100F093
:1012600005F8FFF76BFFF0BCBDE8008C20F07F476E
:1012700080EA030023F07F4C07EB0C03A3F57C53BB
:1012800000F00040A3F1FE0392F0000F00F0B380E5
:1012900095F0000F00F077802DE901494FEA1140E9
:1012A0004FEA144621EA004800FB06FC24EA064700
:1012B00008FB06F607FB08F800FB07F718EB0648E3
:1012C0004CEB164C4FEA124B18EB07484FEA154609
:1012D0004CEB174022EA0B4E0BFB06FC25EA0647B7
:1012E0000EFB06F607FB0EFE0BFB07F71EEB064E8A
:1012F0004CEB164C4FF000061EEB074E4CEB174B19
:1013000018EB0B0840F1000018EB0E0B58EB00082F
:1013100040F100008F1A4FF000013CBFC943661B2B
:1013200014BFB5EB040C00213CBFC943F61B4FEAC8
:1013300017444EEA8E0E27EA04454FEA1C4704FB89
:1013400007622CEA074C05FB07F70CFB05F604FBCC
:101350000CFC16EB074642EB174216EB0C4642EB31
:101360001C421BEB060658EB0202414146EA9E0670
:1013700001D5BDE80189B619524141EB0101A3F144
:101380000103BDE801894FEA14454FEA114724EAF9
:10139000054621EA074C05FB07F406FB07F70CFBA3
:1013A00006F105FB0CFC11EB074144EB17444FEA37
:1013B000124711EB0C4144EB1C4422EA074C05FB9D
:1013C00007F206FB07F70CFB06F605FB0CFC16EB19
:1013D000074642EB174216EB0C4642EB1C456A18D7
:1013E00054F1000148BF7047B619524141EB010169
:1013F000A3F10103704795F0000F37D04FEA114277
:101400004FEA144721EA024624EA074C02FB07F19F
:1014100006FB07F70CFB06F402FB0CFC14EB07447D
:1014200041EB17414FEA154714EB0C4441EB1C41CB
:1014300025EA074C02FB07F506FB07F70CFB06F64F
:1014400002FB0CFC16EB074645EB174516EB0C466A
:1014500045EB1C42121951F1000148BF7047B61903
:10146000524141EB0101A3F1010370474FEA1445DA
:101470004FEA114724EA054621EA074C05FB07F12C
:1014800006FB07F70CFB06F24FF0000605FB0CFC11
:1014900012EB074241EB174112EB0C4251EB1C419E
:1014A00048BF7047921841EB0101A3F10103704757
:1014B00008B50121202001F05BFA0121202001F074
:1014C00057FA0420ADF8000010208DF80300032027
:1014D0008DF8020069460C4800F0CFF80820ADF8FE
:1014E000000014208DF8030003208DF802006946E7
:1014F000054800F0C2F80421034800F054F908211F
:10150000014800F050F908BD001401402DE9F041F8
:1015100006460F4614461D4600F004FA7106080EF2
:1015200000F078F900F0D4F910B10120BDE8F081A5
:10153000384600F06FF900F0CBF908B10120F5E76B
:1015400000F0F0F9012101EB4601C8B200F062F9A8
:1015500000F0BEF908B10120E8E70DE0012D04D14B
:10156000002000F025F9207003E0012000F020F9B0
:101570002070681EC5B2641C002DEFD100F0F2F996
:101580000020D3E72DE9F04106460F4614461D46DC
:1015900000F0C8F97106080E00F03CF900F098F967
:1015A00010B10120BDE8F081384600F033F900F0B9
:1015B0008FF908B10120F5E70AE0207800F02AF958
:1015C00000F086F908B10120ECE7681EC5B2641C82
:1015D000002DF2D100F0C6F90020E3E710B5044673
:1015E000A0B200F005F810BD00BFFEE77047000094
:1015F0000F49098841434FF0E02251610021916178
:101600001146096941F00101116100BF4FF0E0216D
:10161000096901F480310029F8D04FF0E02109690F
:1016200021F001014FF0E02211610021916170472A
:10163000020000200F49097841434FF0E022516138
:10164000002191611146096941F00101116100BF5A
:101650004FF0E021096901F480310029F8D04FF002
:10166000E021096921F001014FF0E0221161002120
:10167000916170470000002070472DE9F04102465B
:1016800000250026002000230024002791F803C035
:101690000CF00F0591F803C00CF0100CBCF1000F1A
:1016A00003D091F802C04CEA050591F800C0BCF1E6
:1016B000000F31D0146800202BE04FF0010C0CFA21
:1016C00000F3B1F800C00CEA03069E4220D183006B
:1016D0004FF00F0C0CFA03F7BC4305FA03FC4CEA7D
:1016E000040491F803C0BCF1280F06D14FF0010C9F
:1016F0000CFA00FCC2F814C00AE091F803C0BCF177
:10170000480F05D14FF0010C0CFA00FCC2F810C0D4
:10171000401C0828D1D31460B1F800C0BCF1FF0F01
:1017200034DD546800202EE000F1080C4FF0010871
:1017300008FA0CF3B1F800C00CEA03069E4221D16E
:1017400083004FF00F0C0CFA03F7BC4305FA03FCBF
:101750004CEA040491F803C0BCF1280F05D100F154
:10176000080C08FA0CF8C2F8148091F803C0BCF118
:10177000480F07D100F1080C4FF0010808FA0CF8E7
:10178000C2F81080401C0828CED35460BDE8F08118
:101790000246002093680B400BB1012000E00020BE
:1017A0007047416170470161704700BFFEE700006C
:1017B00070B50546002408211548FFF7F4FF042002
:1017C000FFF738FF002618E004211148FFF7EBFF70
:1017D0000420FFF72FFF6006040E08210C48FFF7D6
:1017E000D7FF08B1601CC4B204210948FFF7D9FF34
:1017F0000420FFF71FFF701CC6B2082EE4DB15B1F2
:1018000000F032F801E000F049F8204670BD000019
:101810000014014070B5044600251DE004F080006E
:1018200020B108210F48FFF7BEFF03E008210D4853
:10183000FFF7B7FF0420FFF7FDFE6006040E04214A
:101840000848FFF7B0FF0420FFF7F4FE0421054825
:10185000FFF7A7FF681CC5B2082DDFDB0420FFF7E8
:10186000E9FE70BD0014014010B508210A48FFF7D9
:1018700098FF0420FFF7DEFE04210748FFF793FFDF
:101880000420FFF7D7FE04210348FFF78AFF042056
:10189000FFF7D0FE10BD00000014014010B5082174
:1018A0000A48FFF780FF0420FFF7C4FE0421074821
:1018B000FFF779FF0420FFF7BDFE04210348FFF77F
:1018C00070FF0420FFF7B6FE10BD000000140140B9
:1018D00010B5002408211248FFF765FF0420FFF728
:1018E000A9FE04210E48FFF75EFF0420FFF7A2FEC9
:1018F00007E0601CC4B2642C03DD00F033F8012063
:1019000010BD08210648FFF743FF0028F1D104214C
:101910000348FFF746FF0420FFF78CFE0020EFE7A7
:101920000014014010B508210D48FFF73CFF0420CA
:10193000FFF780FE04210A48FFF735FF0420FFF778
:1019400079FE08210648FFF72CFF0420FFF772FEFE
:1019500004210348FFF725FF0420FFF76BFE10BDAD
:101960000014014010B508210A48FFF71AFF0420AF
:10197000FFF760FE04210748FFF715FF0420FFF77B
:1019800059FE08210348FFF70EFF0420FFF752FE1F
:1019900010BD00000014014000BFFEE770470000CA
:1019A00002490143024A1160704700000000FA0535
:1019B0000CED00E0174818481848194819481A480B
:1019C0001A481B481B481C481C481D481D481E48F7
:1019D0001E481F481F4820482048214821482248C7
:1019E0002248234823482448244825482548264897
:1019F00026482748274828482848294829482A4867
:101A00002A482B482B482C482C482D482D482E4836
:101A100000BF7047BC4E0008C04E0008C64E00080C
:101A2000C84E0008C44E0008CA4E0008CC4E00083C
:101A3000CE4E0008D04E0008D24E0008D44E00080A
:101A4000D64E0008D84E0008DA4E0008DC4E0008DA
:101A5000DE4E0008E04E0008E24E0008E44E0008AA
:101A6000E64E0008E84E0008EA4E0008EC4E00087A
:101A7000EE4E0008F04E0008F24E0008F44E00084A
:101A8000F64E0008F84E0008FA4E0008FC4E00081A
:101A9000FE4E0008004F0008024F0008044F0008E7
:101AA000064F0008084F00080A4F00080C4F0008B6
:101AB0000E4F0008124F0008144F0008164F000880
:101AC000184F00081A4F00082E4F000810B500F0FC
:101AD00017F800F0A5FC00F0CDFC00F0EDFC00F0E4
:101AE0006FFC00F02FFC00F081FD00F0ABFD00F07A
:101AF00023FD00F049FD00F004F8FFF75BFF10BD87
:101B00007047704710B50B48007890B900F0FCFDA5
:101B1000094800780949087009480749097850F8C8
:101B20002100084908600846006807490860FEF778
:101B300084FB10BD5A000020500000204F00002000
:101B400050120020680000206000002010B5002422
:101B5000022000F011FBFEF769FB044600200B4950
:101B600008602046FEF766FB642000F005FBFEF7E8
:101B70005DFB0446054800680549086001200549E9
:101B800008702046FEF756FB10BD00005C000020E8
:101B9000440000204C000020704700002DE9FE4F5B
:101BA00006460F4690461C464FF000093F2C02D9CE
:101BB0002A20BDE8FE8FFEF739FB81461E480078DB
:101BC00020B14846FEF736FB3C20F2E71B4850F8B0
:101BD000240060BB0120194941F824004846FEF763
:101BE00029FB002342463946304600F017FA824668
:101BF0000020009001900346024651460290204684
:101C000000F098FD054635B90D48007801280CD143
:101C100000F040FD09E0FEF709FB8146002007497E
:101C200041F824004846FEF705FB2846C1E7484630
:101C3000FEF700FB2820BCE74D00002050120020DA
:101C40005A0000202DE9F04F85B081468A46934620
:101C50001C46DDE90F78129D002003903F2C03D92C
:101C60002A2005B0BDE8F08FFEF7E0FA0390224885
:101C7000007820B10398FEF7DDFA3C20F1E71F4819
:101C800050F8240088BB01201C4941F82400039827
:101C9000FEF7D0FA2A464146384600F05BFE2B4656
:101CA0005A465146484600F0B9F904901198CDE9DA
:101CB000008002953A4620460E9B049900F03AFDBA
:101CC000064636B90E48007801280CD100F0E2FC37
:101CD00009E0FEF7ABFA03900020084941F8240020
:101CE0000398FEF7A7FA3046BBE7FFE70398FEF735
:101CF000A1FA2820B5E700004D0000205012002076
:101D00005A000020704700002DE9F04105460027E9
:101D10004D48007810B14020BDE8F0813F2D01D141
:101D20003E20F9E73F2D03D3FF2D01D02A20F3E712
:101D3000FEF77CFA0746FF2D03D14448006890F86F
:101D40003650434850F8254024B93846FEF772FA19
:101D50004320E1E7012C04D13846FEF76BFA3D2021
:101D6000DAE714F8380F3B49085C6178884321783A
:101D7000384A505414F838091146085C30B994F8C0
:101D80003A1035480078884333490870E06918B143
:101D90002046E16900F0A4FA206A18B12046216AC1
:101DA00000F0B3FAA66A16B1304600F0F7FA002048
:101DB000206384F8340084F8350028480078FF2830
:101DC00004D226480078401C244908703846FEF7A3
:101DD00031FA00F084FAFEF729FA07461F48007826
:101DE00020B11E480078401E1C490870204600F0B3
:101DF00041F81B480078401E19490870002014491A
:101E000041F82500A06930B9002061698861154951
:101E10006069086005E0D4E905014861D4E905106E
:101E200088611148006860610F4804600FA0206558
:101E30003846FEF7FFF90E480078012801D100F07E
:101E400029FC002068E700004D0000206000002011
:101E50005012002052000020510000204E000020AF
:101E60005B0000206C000020640000203F000000A8
:101E70005A000020704700002DE9F0410446002779
:101E80003F2C02D13E20BDE8F0813F2C03D3FF2C34
:101E900001D02A20F7E7FF2C0BD1FEF7C7F9074640
:101EA0001148006890F83B603846FEF7C3F93046A9
:101EB000E9E7FEF7BBF907460C4850F8245025B96E
:101EC0003846FEF7B7F94320DDE7012D04D1384647
:101ED000FEF7B0F93D20D6E73F2085F83B003846B5
:101EE000FEF7A8F90020CEE7600000205012002085
:101EF000704700002DE9F04105460F4614464FF0AB
:101F000000083F2D05D9FF2D03D02A202070BDE801
:101F1000F08117B90C202070F9E71448007810B14F
:101F200012202070F3E7FEF781F98046FF2D03D1E0
:101F30000F48006890F836500E4850F825602EB9CA
:101F40004046FEF777F943202070E0E7012E05D1E7
:101F50004046FEF76FF943202070D8E737654046CA
:101F6000FEF768F90020207000BFD0E74D00002088
:101F70006000002050120020704700002DE9F0475B
:101F800006460C464FF0000A3F2E04D9FF2E02D021
:101F90002A20BDE8F0870CB90920FAE7002020606C
:101FA0006060FEF743F98246FF2E03D119480068AE
:101FB00090F83660184850F8265025B95046FEF77C
:101FC00039F94320E5E7012D04D15046FEF732F9F7
:101FD0004320DEE7287C00F0010020B95046FEF7E0
:101FE00029F94520D5E70027D5F80C90D5F80880C9
:101FF0005046FEF71FF900E07F1C58F8041B00292B
:10200000FAD0B8002060A9EB0700800060600020D3
:10201000BFE70000600000205012002070B50446A9
:1020200010464FF080750560051F28462C606FF044
:102030000106051F28462E604FF01236051F284660
:102040002E604FF00336051F28462E604FF00236F3
:10205000051F28462E607610051F28462E60051F96
:10206000284629604FF01136051F28462E604FF094
:102070001036051F28462E604FF00936051F2846EA
:102080002E604FF00836051F28462E604FF00736A9
:10209000051F28462E604FF00636051F28462E6085
:1020A0004FF00536051F28462E604FF00436051FF9
:1020B00028462E6070BD00002DE9F04105464FF026
:1020C00000083F2D02D14720BDE8F0813F2D03D30A
:1020D000FF2D01D02A20F7E7FEF7A8F88046FF2D54
:1020E00005D12048006890F83650012608E01D48C8
:1020F000006890F83600A84201D1012600E00026D1
:10210000194850F8254024B94046FEF793F8482076
:10211000DAE7012C04D14046FEF78CF84320D3E7E0
:1021200094F838701148C05D94F8391088430F490D
:10213000C8550846C05D30B994F83A100C4800788C
:1021400088430B49087094F8340040F0080084F884
:1021500034004046FEF76EF8012E01D100F09AFAE5
:102160000020B1E760000020501200205200002043
:10217000510000207047000070B505460026174842
:10218000007800B170BD1648007800B1FAE71DB3C1
:10219000FEF74CF806461348006890F8384012489D
:1021A000005D1049096891F8391088430E490855B7
:1021B0000846005D40B90B48006890F83A100B489B
:1021C000007888430949087006480068056330466E
:1021D000FEF730F800F05EFA00BFD3E74D000020B4
:1021E0004E0000206000002052000020510000201E
:1021F00070B5002600F072F8FEF718F80646314870
:102200000068401C2F4908603046FEF713F82E483E
:102210000078012853D12D48007820B1012804D03E
:10222000022809D103E001250BE0002509E0012582
:1022300001202649087004E0012500202349087088
:1022400000BF00BF05B970BD2148046833E0FDF749
:10225000EDFF0646206B50B3206B401E2063206BC1
:1022600028BB94F8340000F0370040B114F8340F64
:1022700000F0C800207001206070343C02E00020B3
:1022800084F8350094F8340000F0080078B9383448
:10229000A0781049097808430E49087020780E4943
:1022A000085C6178084314F838190B4A5054646983
:1022B0003046FDF7BFFF94F836003F28C7D100BF76
:1022C000C1E700007C0000205A00002070000020C0
:1022D0006C00002051000020520000207047704721
:1022E00010B590F8382001F10B039B5C90F8394051
:1022F000A34301F10B04A35423469B5C23B98B7ABF
:1023000090F83A40A3438B7210BDF0B5024612F824
:10231000384F95785678383A0B4618680FE000F138
:102320000B073F5DB74300F10B0C0CF804706746D8
:102330003F5D17B9877AAF4387721B1D1868002865
:10234000EDD1F0BD2DE9F0415021114800F044F9E4
:1023500000250DE0681C86B20D4800EB051400EB6B
:1023600006170020207067600AA0E060681C85B234
:10237000042DEFD3064800EB0514002020706060A8
:1023800004A0E060024804490860BDE8F081000054
:10239000000E00203F0000003C00002030B5014648
:1023A0004A6808682AB9CC68606028B10025456091
:1023B00002E0106000B142608B6800259D6230BD74
:1023C00070B54FF4C071134800F006F9002411E015
:1023D000601C85B204EB44000E4901EBC00305EB21
:1023E000450001EBC006002018705E600AA058612D
:1023F000601C84B20F2CEBD304EB4400054901EBC5
:10240000C00300201870586003A0586108460349B3
:10241000086070BD800C00203F00000038000020E4
:1024200000200A4908600A4908700A4908700A49E8
:1024300008700A4908700A4908600A4908600A4990
:1024400008600A4908600A49087070477C0000204B
:102450004D0000204E0000205B0000205A000020AC
:10246000340000205C0000204800002044000020D0
:102470004C00002000210A4A1170002004E00021D5
:10248000084A1154411CC8B20828F8D30021064A52
:102490001170064A1170064A1160064A11607047B1
:1024A00051000020520000204F000020500000206A
:1024B000680000206000002070B54FF4F2611948F8
:1024C00000F08AF84FF48071174800F085F8002476
:1024D00013E0601CC5B204EB440000EBC4001149DA
:1024E00001EBC00305EB450000EBC50001EBC006A6
:1024F0005E610EA01865601CC4B2152CE9D304EB14
:10250000440000EBC400074901EBC0030020586100
:1025100006A01865002006490860024805490860C1
:1025200070BD000050130020501200203F0000003A
:102530006C0000206400002000B587B0032000215B
:1025400080220A4BCDE90132CDE903104FF6FF702E
:102550003F23074A00900748FFF774FB06AA06A12D
:102560003F20FFF7C7FC07B000BD0000501000205F
:102570004C1200206928000875432F4F532D4949FC
:102580002049646C6500000000B587B0032000217D
:1025900080220A4BCDE90132CDE903104FF6FE70DF
:1025A0003E23074A00900748FFF74CFB06AA06A106
:1025B0003E20FFF79FFC07B000BD0000500E00203A
:1025C0004C1000209128000875432F4F532D494986
:1025D000205374617400000004E0002200F8012B15
:1025E0004A1E91B20029F8D17047000070B57821D9
:1025F0001148FFF7F1FF00240EE004EB44000E4900
:1026000001EBC005601C00EB400001EBC0006860FE
:102610000AA06861601C84B2042CEED304EB440071
:10262000054901EBC0050020686004A06861084608
:102630000349086070BD0000E01A00203F00000060
:10264000740000202DE9F04160211048FFF7C4FF1D
:1026500000240DE0601C86B204EB44000B4901EB42
:10266000C00506EB460001EBC0072F60601C84B27A
:10267000032CEFD304EB4400044901EBC005002018
:102680002860084602490860BDE8F081581B002018
:102690007800002010B50024FDF7C8FD044613485B
:1026A0000078F8B912480078E0B900F02DF8114828
:1026B0001149097850F82100104908600E48007847
:1026C0000F49097888420DD00C480068C06B401C47
:1026D0000A490968C8630B480068401C094908603A
:1026E000FDF7BAFD2046FDF7A5FD10BD4D00002009
:1026F0004E000020501200205000002068000020F2
:102700004F000020340000200649074A1278885CF8
:102710000649095C034A515C01EBC001044A11708F
:1027200070470000BC4D00085100002052000020FE
:10273000500000202DE9F84F05460F469046994677
:10274000DDE90AAB00200090FDF770FD00903F48E6
:102750000468002C75D01C3454F8080C3B49086000
:102760000098FDF767FD44F81C7CA57600202076D4
:102770006076606144F818BC44F810AC44F8148CDE
:102780000C9824F80C0C24F80A9C0020E077E81040
:10279000207705F00700E076217F01208840A077B0
:1027A000E17E012088406077002020606060E0606A
:1027B000A0602062A0626062E062206324A0606387
:1027C0001C3C002606E0002104F1540040F82610CD
:1027D000701CC6B2002EF6D02046FFF7DDF9204669
:1027E000FFF790FAFDF722FD00901A4840F82540C7
:1027F0001948006860610020A0611748006810B1A6
:10280000154800688461144804603834A07813497E
:10281000097808431149087020781149085C6178EB
:10282000084314F838190E4A50540E480078401CDA
:102830000C4908700098FDF7FDFC0020BDE8F88FFA
:10284000FFE70098FDF7F6FC4220F7E76400002060
:102850003F000000501200206C00002051000020BA
:10286000520000205B000020002400BF00BFFDF7E5
:10287000DDFC044605480068401C04490860204609
:10288000FDF7D8FCFFF734FBF1E700005C00002007
:10289000002400BF02E0C820FFF76EFC1948007852
:1028A0000028F8D0184800686421B0FBF1F0164900
:1028B00008600846006828B9002014490870FF2005
:1028C000FFF7FAFB00BFFDF7B1FC044610480068B3
:1028D0001049086000200E4908602046FDF7AAFC58
:1028E0000C48006808490968B0FBF1F0C0F16400C9
:1028F00006490870FFF740FB00F00EF86420FFF770
:102900003BFCE0E74C000020440000204000002099
:102910005C000020480000207CB5002514E06946DA
:102920002846FFF72BFB064666B9094850F82540B4
:1029300044B1012C06D0D4E9020100EB8100A0646F
:102940000198E064681CC5B23F2DE8D97CBD000049
:102950005012002002F0010343B102F002032BB138
:1029600002E0491E002308C00029FAD17047000088
:1029700029B1064A92690243044B9A6104E0034A72
:1029800092698243014B9A61704700000010024037
:1029900030B500210022002400232D4D6D6805F084
:1029A0000C0121B1042905D0082923D105E0294DC6
:1029B000056022E0274D05601FE0254D6D6805F498
:1029C0007012234D6D6805F48034022505EB9242A8
:1029D0001CB9214D554305600BE01D4D6D6805F494
:1029E00000351DB11C4D5543056002E0194D55439E
:1029F000056002E0174D056000BF00BF144D6D6813
:102A000005F0F0010909154D6B5C0568DD40456076
:102A10000F4D6D6805F4E061090A104D6B5C456867
:102A2000DD4085600A4D6D6805F46051C90A0B4DA3
:102A30006B5C4568DD40C560054D6D6805F440413F
:102A4000890B074D6B5CC568B5FBF3F5056130BDBF
:102A50000010024000127A0000093D002000002012
:102A600030000020704710B500F002F810BD0000E3
:102A70000CB50020019000903348006840F480308D
:102A80003149086000BF3048006800F40030009011
:102A90000198401C0190009818B90198B0F5A06FFA
:102AA000F1D12948006800F4003010B101200090F5
:102AB00001E0002000900098012843D123480068DD
:102AC00040F01000214908600846006820F003002B
:102AD00008600846006840F0020008601A48406834
:102AE000194948600846406848600846406840F414
:102AF000806048600846406820F47C1048600846C2
:102B0000406840F4E81048600846006840F0807073
:102B1000086000BF0C48006800F000700028F9D081
:102B20000948406820F003000749486008464068AB
:102B300040F00200486000BF0348406800F00C000D
:102B40000828F9D10CBD000000100240002002400E
:102B500010B5FFF74DFB10BD10B51348006840F0ED
:102B600001001149086008464068104908400E49B4
:102B70004860084600680E4908400B49086008464E
:102B8000006820F4802008600846406820F4FE00B9
:102B900048604FF41F008860FFF765FF4FF000604A
:102BA0000449086010BD0000001002400000FFF85A
:102BB000FFFFF6FE08ED00E04FF0E020006920F096
:102BC00004004FF0E0210861094800680949B0FBA2
:102BD000F1F0094908700846007800EB4001C1EBAC
:102BE000C0104FF6FF7101EAC00004490880704729
:102BF0000C00002000127A000000002002000020DB
:102C000000B585B001210420FFF7B2FE01210420A8
:102C1000FFF7AEFE01218803FFF7AAFE4FF4007014
:102C2000ADF8100001208DF8120018208DF8130067
:102C300004A91548FEF721FD4FF48060ADF810009F
:102C400001208DF8120004208DF8130004A90E480D
:102C5000FEF713FD4FF4614000900020ADF8040032
:102C6000ADF80600ADF80800ADF80C000C20ADF88A
:102C70000A006946054800F025F80121034800F0E4
:102C800007F805B000BD0000000801400038014011
:102C900021B1828942F40052828104E082894DF69A
:102CA000FF731A408281704702460020B1F5007F11
:102CB00000D100BF13880B400BB1012000E00020C1
:102CC000704700002DE9F04786B005460E46002407
:102CD000A24600BFA1460027B08900B100BF2F4621
:102CE0002C8A4CF6FF700440F08804432C82AC8997
:102CF0004EF6F3100440B0883189084371890843C7
:102D00000443AC81AC8A4FF6FF400440B0890443D1
:102D1000AC8201A8FFF73CFE1F48874202D1DDF8D4
:102D200010A001E0DDF80CA0A88900F4004040B13B
:102D30000AEBCA0000EB0A1031684900B0FBF1F859
:102D400007E00AEBCA0000EB0A1031688900B0FB0B
:102D5000F1F86420B8FBF0F004012009642101FBC4
:102D60001089A88900F4004040B1322000EBC9006E
:102D7000B0FBF1F000F00700044308E0322000EB64
:102D800009106421B0FBF1F000F00F0004432C8126
:102D900006B0BDE8F087000000380140C1F308022A
:102DA0008280704700BFFEE7490050EAC12018BF8B
:102DB00004204A0D18BF40F0010040F2FF72B2EB50
:102DC000515F08BF40F00200012808BF052070478E
:102DD0002DE9F0414F1E00EBC7010446D1E9000187
:102DE00015461E4637F006020DD02A46334601F03E
:102DF000E5FB7F1E04EBC703D3E9002301F076F95E
:102E000037F00602F1D1022F25D0042F13D0062F60
:102E100018BFBDE8F0812A46334601F0CFFBD4E964
:102E20000A2301F063F92A46334601F0C7FBD4E9CF
:102E3000082301F05BF92A46334601F0BFFBD4E9D1
:102E4000062301F053F92A46334601F0B7FBD4E9D3
:102E5000042301F04BF92A46334601F0AFFBD4E9D5
:102E6000022301F043F92A46334601F0A7FBD4E9D7
:102E70000023BDE8F04101F039B9000000221346FB
:102E80001046014901F0EEB90000F03F01F02EB903
:102E9000002213461046114601F0E4B940F2013217
:102EA00000204FF0E04101F043BF0000024A002043
:102EB000110701F03DBF000001FDFFFF30380A2877
:102EC00001D2012070470020704700BF704700000A
:102ED00030B587B03C490968887E3B4909681623AC
:102EE00001AACD6AAA21A84704469DF805009DF8CD
:102EF000041040EA012000B23349096808809DF8B7
:102F000007009DF8061040EA012000B22E4909682A
:102F100048809DF809009DF8081040EA012000B2A1
:102F20002949096888809DF80B009DF80A1040EA3D
:102F3000012025490968C8809DF80D009DF80C10F6
:102F400040EA01202049096808819DF80F009DF89A
:102F50000E1040EA01201C49096848819DF81100C3
:102F60009DF8101040EA012000B2174909688881D5
:102F70009DF813009DF8121040EA012000B212499A
:102F80000968C8819DF815009DF8141040EA0120D9
:102F900000B20D49096808829DF817009DF81610C7
:102FA00040EA012000B20849096848829DF81900EA
:102FB0009DF8181040EA012000B203490968888290
:102FC000204607B030BD0000080000202DE9F04782
:102FD0000546DFF81881D8F80080D8F81C80A8F5DD
:102FE0007A6303FB03F84FEA2831DFF80081D8F851
:102FF0000080B8F90E8001FB08F1C912DFF8EC80FF
:10300000D8F80080B8F9028008FB03F2D2128E18BB
:10301000DFF8D880D8F80080B8F9008006EB88087F
:10302000DFF8C890D9F8009099F8249008FA09F8C8
:1030300008F102084FEAA80CDFF8B080D8F8008049
:10304000B8F9048008FB03F84FEA6831DFF89C8088
:10305000D8F80080B8F90C8003FB03F94FEA29394E
:1030600008FB09F84FEA284201EB020808F10208C0
:103070004FEAA806DFF87480D8F80080B8F8068018
:1030800006F5004908FB09F84FEAD837A5EB0C080C
:10309000DFF85890D9F8009099F824A04CF25039F4
:1030A00049FA0AF908FB09F4B4F1004F04D24FEAD7
:1030B0004408B8FBF7F003E0B4FBF7F84FEA480028
:1030C0000112494340F6DE3801FB08F84FEA284177
:1030D000DFF81C8000FB08F84FEA284201EB0208E9
:1030E00008F6CF6800EB2810BDE8F0870800002044
:1030F00043E3FFFF30B50246124C2468E47E552CB2
:1031000018D1104C24686489141B0E4D2D682D892C
:103110006C43E1130B4C2468B4F91240E402094DEE
:103120002D68B5F914500D4494FBF5F3CC18054DFA
:103130002D68EC61034C2468E4690834241120B242
:1031400030BD0000080000202DE9FC4100250027CB
:10315000002655480068C07D552855D15248006862
:10316000C08C012850D150480068808C03284BD176
:10317000002443E04C48006890F82400342101EB1F
:103180008010C0B2009048490968887E46490968A5
:1031900001236A46D1F828C0F421E0470646424A96
:1031A000126892F8243003229A40901C3E4A12681A
:1031B000116B88473C490968887E3B4909680323AD
:1031C00001AAD1F82CC0F621E04706449DF804007E
:1031D00000049DF8051040EA01209DF80610084300
:1031E00031490968B1F92410C1F1080120FA01F749
:1031F00001202D49096808623D44641C032CB9DB99
:103200000320B5FBF0F54CE027480068C07D552849
:1032100047D125480068C08CF0BB2348006890F86F
:103220002400342101EB8010C0B200901E490968CF
:10323000887E1D49096801236A46D1F828C0F42117
:10324000E0470646184A126892F8243003229A4052
:10325000901C154A1268116B884713490968887ECB
:1032600011490968032301AAD1F82CC0F621E047CF
:1032700006449DF8040000049DF8051040EA012072
:103280009DF80610084308490968B1F92410C1F1F6
:10329000080120FA01F500E003E001200249096875
:1032A00008622846BDE8FC81080000202DE9FC41A9
:1032B00015480068C07D552802D12E2000900525B4
:1032C00011490968887E1049096801236A468F6A96
:1032D000F421B84706460C480068016B2846884729
:1032E00009490968887E08490968022301AACF6A4A
:1032F000F621B84706449DF805009DF8041040EA01
:1033000001242046BDE8FC8108000020F8B50546F0
:10331000002425480560002023490968C8767720E5
:1033200021490968887620490968887E1E4909680C
:1033300001236A46CE6AD021B0472044C4B29DF82A
:10334000000019490968C875012017490968086211
:10335000002015490968888413490968C8841248FF
:103360000068C07D55281DD10F490968C8760E49EF
:103370000968887E0C49096801236A46CE6AD12112
:10338000B0472044C4B29DF8000000F00F00064989
:10339000096808769DF80000000903490968487625
:1033A000FFF796FD2046F8BD0800002094B02E4897
:1033B00011902E4810902E481290FEF779F806A82A
:1033C000FFF7A4FF10B12BA0FCF786FF4AE0FFF740
:1033D0007FFDFFF76BFF0646FFF78CFE054628468C
:1033E00001F098F88146294A294B01F0E7F8064692
:1033F00032460B4627A0FCF76FFFFFF7A5FE0646F7
:10340000FFF7E4FD0446214629A0FCF765FF2046AE
:1034100001F080F8064600222D4B00F023FF2D4AD4
:103420002D4BCDE9000100F097F800222B4BCDE9A0
:10343000020101F0F7F981460022294B01F0BEF8A4
:10344000CDE9040100F020FE8046404601F0C6FBB5
:10345000064632460B4623A0FCF73EFF4FF47A7037
:10346000FEF7C6F8B3E700000D1500088515000843
:10347000DD150008626D70313830B3F5CABCBBAFE2
:10348000B4EDCEF321200D0A000000009A9999991D
:103490009999B93F626D703138302DB5B1C7B0CE52
:1034A000C2B6C8CEAAA3BA252E3166200D0A0000E6
:1034B000626D703138302DB5B1C7B0B4F3C6F8D1F4
:1034C000B9C7BFCEAAA3BA256C64200D0A000000BC
:1034D000D0BCF8406C45D9CC955BC83F0000F03FAC
:1034E00040A5E540B5B1C7B0BAA3B0CEB8DFB6C805
:1034F000CEAA2025302E3166206D200D0A00000056
:1035000070B504460D4600BF40210548FFF7CCFBCF
:103510000028F9D0E1B20248FFF740FC204670BD18
:103520000038014010B54FF4A060FEF739FAFFF7FC
:1035300067FBFFF741FBFEF7C9FA1E23044A00218F
:103540000448FEF72BFBFEF7DDFA002010BD00005B
:103550007C0200207D3F00082DE9F04D1D460C4601
:1035600098B0174621F0004123F00043002814BF13
:103570004FF0010C4FF0000C0CEB440CFE4A0CEB2E
:1035800002064FEA620C66452BD33E0018BF0126A7
:1035900006EB45061644F94A964222D3F84A53EA06
:1035A000070C02D0944205D148B918B0002011464A
:1035B000BDE8F08D002808BF4FF0000C01D04FF09F
:1035C000010C0CEB440212F5001F0AD8002F14BFA7
:1035D0004FF0010C4FF0000C0CEB450212F5001FF0
:1035E00007D918B03A462B462146BDE8F04DFFF703
:1035F0004DBC0022DFF88CA3002CB8BF534526DA5F
:10360000DFF884C36345A8BF022220DADFF870C365
:103610009C451CDCDFF874C30CEB235CBCF1140F7D
:1036200008DDCCF1340627FA06FC0CFA06F6BE4299
:103630000DD108E05FB9CCF1140623FA06FC0CFAB0
:1036400006F69E4203D10CF00102C2F1020251EAD9
:10365000000C19D1002D17DA002C18BF022A01D056
:10366000012A07D00220FCF74CFF18B0BDE8F04D4E
:10367000FFF704BC0220FCF744FFFFF7FFFB18B084
:1036800081F00041BDE8F08DB7F1000C6CD15345DD
:1036900025D104F1804212F5801201BF00280020DC
:1036A000B74918B008BFBDE8F08DB548884207DCBF
:1036B000002DA1BF6046294618B0BDE8F08D07E097
:1036C000281E05DA80F0004118B06046BDE8F08D94
:1036D000AF497944D1E9000118B0BDE8F08DDFF8B9
:1036E000A0C2634525D1002D1FDA19B1514512D171
:1036F000D8B909E0002840F0EC82A24A214618B06F
:1037000062F31E01BDE8F08D0020214618B060F381
:103710001E01BDE8F08D08DA18B02346BDE8F04D73
:1037200002460020614600F09DBD18B02146BDE86C
:10373000F08D514518DAB5F1804F0DD0A5F1005C40
:10374000BCF1FF5C10D1B4F1000C0DDB18B0614688
:10375000BDE8F04D00F0ECBB234618B00246BDE8D2
:10376000F04D194600F02ABF060024F0004C3BD172
:10377000D9B1514533D1002C06DD002DA1BF002069
:10378000514618B0BDE8F08D002C01DD002D1BDB8B
:10379000002C13DA002D11DB012A4FF0000014BFBA
:1037A00078497C4918B0BDE8F08D022A18BF002C7A
:1037B0000AD0012A08D1002C06DA0AE0002CB8BF92
:1037C000002D11DA012A04D0002018B00146BDE80E
:1037D000F08D18B000204FF00041BDE8F08DA1F150
:1037E0004050B0F17F601AD0012000EBE47050EA45
:1037F000020421D0624C521E4FF0000B104304BF54
:103800004FF0000B644C654883427CDD644A654898
:1038100093421FDD884217DB002D25DB37E0002CAB
:1038200000DA4AB1022A0CBF01204FF0FF3018B075
:10383000BDE8F04D00F06EBE0120FCF762FE18B04E
:10384000BDE8F04DFFF724BB4D4A8A4202DC002D53
:103850000ADC1CE0814202DA002D18DA04E0484B51
:10386000994220DD002D12DD0220FCF74AFEFFF711
:1038700015FB05460E46002253465846214600F0E9
:103880009DFE18B066F31E012846BDE8F08D0220AB
:10389000FCF737FEFFF70AFB0A46214618B062F331
:1038A0001E01BDE8F08D00223046614601F0ACF803
:1038B00080460E466FF0010201F03AFA4FF05532A1
:1038C000394B00F0AFFF4246334600F077FE00224E
:1038D000364B00F0A7FF824642463346049110461D
:1038E000194600F06BFE5246049B00F067FE8A46C4
:1038F00000904FF0C0422E4B4046314600F05EFE35
:103900002C4A2B4B00E027E0CDE9060151460098F8
:1039100000F054FE82460191274A284B404631462A
:1039200000F04CFE5246019B01F06EF882460B46B9
:1039300002460591DDE9060100F0D8FBDDE906232A
:1039400000268846304601F05FF85246059B00F09D
:1039500069FF024600F07EB90020B1F5801F07DA4A
:1039600035223046614601F0E3F906466FF0340037
:1039700000EB215024E00000FFFF1F00FFFF0F00BD
:103980000000F03F0000F07F0000404301FCFFFF1B
:10399000FA1800000000F0FF0000F0BF0000E04156
:1039A0000000F043FFFFEF3F5555D53F0000E03FDB
:1039B0004715F73FFE822B6544DF5DF80BAE543EA2
:1039C000A0F2FF300190C1F3130040F07F6141F09D
:1039D00040510291FE498842D8BF002004DDFD49D4
:1039E0008142C8BF012001DD0D9008E000200D904C
:1039F0000198401C01900298A0F580100290029955
:103A0000F54878440B910D9900EBC100D0E90023F3
:103A10000F9330460A920B9900F0F6FFCDE90601AC
:103A2000DDE90A2130460F9B00F060FB02460B46A1
:103A30000020EA4900F016FC059102460B46009072
:103A4000DDE9060100F0BAFD1490E5488A464FF022
:103A5000000878440299006812904FF0005040EA44
:103A600061010D980F9B01EB804000F50021099149
:103A70000A9A129800F0C8FF32460B9B00F0D2FE63
:103A80004246534600F09AFD064602914046514692
:103A9000099B129A00F092FDDDE9062300F0C2FEB8
:103AA0003246029B00F0B0FF059B009A00F086FDB5
:103AB0000091149A049053461046194600F07EFD7A
:103AC00006460246C7480B46029106217844FFF796
:103AD0007FF9CDE90510029B32461046194600F0E9
:103AE0006DFDDDE9053200F069FD0591064653469E
:103AF00040461946149A00F0F9FA009B049A00F027
:103B00005DFD3246059B00F0F1FACDE90510424615
:103B100053461046194600F051FD0022B24B029167
:103B20000A9000F0E3FADDE9053200F0DFFA0E4614
:103B30004246AD4B404600F067FF029B0A9A00F0F8
:103B400063FFDDE9053200F06DFE424602910A9006
:103B500033461046514600F031FDCDE9060153468B
:103B6000149A02990A9800F029FD8A460290334679
:103B700042460099049800F021FD5346029A00F055
:103B8000B5FA82460B4602460591DDE9060100F0D2
:103B9000ADFADDE9062300208846064600F034FF32
:103BA0005246059B00F03EFE824609914FF060426E
:103BB0008E4B3046414600F001FD049006918C4A40
:103BC0008A4B5046099900F0F9FC82460291894AD5
:103BD000894B3046414600F0F1FC5246029B00F012
:103BE00085FA864B7B440D9A03EBC203D3E900238D
:103BF00000F07CFA0E900791019800F08BFC059183
:103C0000DDE9061382460E9A049800F06FFA7C4AAA
:103C10007A440D9B02EBC303D3E900230093029285
:103C200000F064FA5246059B00F060FA00268846D0
:103C300052463046059B00F0E7FE009B029A00F0DA
:103C4000E3FE069B049A00F0DFFE079B0E9A00F04D
:103C5000E9FD024600200B4602903846294600F056
:103C6000ADFC824601912B4638461946029A00F077
:103C7000CBFE3246434600F0A1FC5246019B00F0C9
:103C800035FA07468A46324643462946029800F0EE
:103C900095FC05460E463A46534600F027FA594A27
:103CA0008846914221DBA8EB020353EA000210D1BF
:103CB0002A46334600F0A8FECDE90401524A534B90
:103CC0003846514600F012FADDE9042300F074FD95
:103CD00021D20220FCF715FCFFF7E0F80A46214646
:103CE00018B062F31E01BDE8F08D494B28F0004288
:103CF0009A4210D3474A08EB020353EA00027FF4CA
:103D0000C6AD2A46334600F07FFE3A46534600F0E1
:103D100053FD7FF6BCAD0022019228F000403E49E1
:103D20003E4A01EB2051824223DA481C4FF48011B5
:103D300021FA00F040443A4AC0F30A517A44394B20
:103D4000A1F2FF31CB4020EA0303C0F3130040F49B
:103D50008010C1F11401C84012680190B8F1000F41
:103D6000BCBF404201902846314600F04DFE05465A
:103D70000E462A4633463846514600F0B7F94FF012
:103D800000084246284B4046059100F017FCCDE95B
:103D90000601264A264B4046059900F00FFC00918B
:103DA00002902A4633464046059900F02DFE3A46D9
:103DB000534600F037FD1F4A1F4B00F0FFFB009BEE
:103DC000029A00F093F90746884602460B4635E012
:103DD0008E9803007AB60B00421500000000F03FF9
:103DE0007A150000A81400000000084009C7EE3F43
:103DF000FD033ADCF5015B14E02F3EBE80130000AA
:103E00004413000000009040FE822B654715973C4C
:103E100000CC904000346F3F01FCFFFF0000E03F0A
:103E200090120000FFFF0F00432EE63F396CA80CF4
:103E3000615C20BEEF39FAFE422EE63FDDE9060165
:103E400000F054F9DDE9062305460E4600F0DCFDDE
:103E50003A46434600F0E6FC0F462A4633460090B9
:103E60001046194600F0AAFB824602462E488846B4
:103E70000B4605217844FEF7ABFF5246434600F05F
:103E80009DFB2A46334600F0CDFC80468A463B46E1
:103E900028463146009A00F091FB3B46009A00F01C
:103EA00025F90691009000224FF08043404651468C
:103EB00000F0AAFD0F460C90424653462846314674
:103EC00000F07CFB3B460C9A00F0CCF9069B009A74
:103ED00000F09AFD2A46334600F096FD0022134B6F
:103EE00000F0A0FC054601980E4601EB00510815B4
:103EF000002810DC28463146019A00F019FFFEF731
:103F000053FF042808BFFEF7D1FF28463146019A27
:103F100000F00EFF05460B4618B02A4658462146CB
:103F2000BDE8F04D00F04ABB301100000000F03F4A
:103F30002DE9F04106460F4600F080FC041E0D46B8
:103F400018BF0120284320F00040C0F17F6000F13D
:103F5000E040C00F0ED0301C18BF0120384320F0C5
:103F60000040C0F17F6000F1E040C00F04BF0120BD
:103F7000FCF7C7FA20462946BDE8F08170B5064631
:103F80000025FDF7E3FDFCF751F905461123124A20
:103F900000211248FDF702FE0A23114A00211148B0
:103FA000FDF7FCFDFF20FDF767FF044664B9FF2025
:103FB000FDF7AAFE04461CB90BA0FCF78DF906E03C
:103FC0000EA0FCF789F902E011A0FCF785F928465C
:103FD000FCF730F970BD00007C0400202940000887
:103FE0007C080020AD330008C9BEB3FDBFAACABC1F
:103FF000C8CECEF1B3C9B9A6200D0A00BFAACABC6B
:10400000C8CECEF1C9BEB3FDCAA7B0DC200D0A00F0
:10401000C7EBC7F3BFAACABCC8CECEF1C9BEB3FDB9
:10402000CAA7B0DC200D0A0008E00548017805A009
:10403000FCF752F94FF47A70FDF7DAFAF5E7000071
:1040400040000020435055B5C4CAB9D3C3C2CACE3C
:10405000AAA3BA2564252520200D0A0010B5002941
:104060000AD00878002807D005487844FCF718FEE5
:10407000002801D0002010BD0248784410BD000087
:10408000221000001A10000021F00042A2F160523C
:10409000B2F5801F01F0004328BFD2F17F6C0BD92D
:1040A0005FEA001C43EAC20242EB507018BF70473F
:1040B00028BF20F001007047B2F5801FBCBF184632
:1040C00070474FEA410C1CF5001F02D2084600F071
:1040D000F6BD70B500F01CFB00000089FFF7F6BFCD
:1040E0004FF00040A0F580007047000010B591EA45
:1040F000030F48BF83F0004300F18E84841A71EBF4
:10410000030C05D2121943EB0C03001B61EB0C01ED
:10411000DFF824E14FEA1154A4EB135C1EEA430FCD
:1041200018BF9EEA445F73D023EA0E03DCF1200E31
:1041300021EA045143F4801332D322FA0CFE10EB2F
:104140000E0023FA0CFE41EB0E01CCF1200E03FA17
:104150000EFE10EB0E0051F10001B1F5801FCCF105
:10416000200E32D201EB045112FA0EF2BDE81040DB
:1041700058BF7047401C38BF5FEA420218BF704703
:10418000002814BF20F0010041F100014FEA410373
:1041900013F5001F38BF7047A1F1C04100F006BB06
:1041A000012A43EB0302ACF1200CDCF11F0E32BFFD
:1041B0004FF0000E23FA0CF310EB030041EB045117
:1041C000B4EB115FD0D0A1EB045101F58011490887
:1041D0005FEA300001EB04510ED350F1000038BF0C
:1041E00012FA0EFE08D1BDE81040C9E7401C38BFE6
:1041F0005FEA4202CAD1C3E7BDE810404FEA41037B
:1042000013F5001F38BF7047A1F1C04100F0CEBACE
:104210009EEA445F08D011EA5E0FBDE8104004BF7B
:1042200001F0004100207047BDE8104070B500F07B
:104230006FFA00BF64FBBE3E0000E0FF02494FF092
:10424000000000F043BD00BF0000F87F491058BFD8
:10425000C1F140415B1058BFC3F140438B42EFF3C3
:10426000008070472DE9C04130B4DFF8A0C23CEABD
:10427000111418BF3CEA131400F0EC8081EA030526
:104280001CEA111444EAD57418BF1CEA131500F097
:10429000C780A4EB05044FF0004545EAC12145EA7B
:1042A000C32341EA505143EA525304F17F749942C7
:1042B00004F500344FEAC0204FEAC22208BF904202
:1042C00000F09C804FEA13650FF24016765D4FEACE
:1042D000134506FB05F7C7F1807706FB07F74FEAA2
:1042E000D737A7FB03687642C8F58038A7FB06CE10
:1042F00038BFA8F1010807FB08E64FF0000EA6FB47
:10430000028CE6FB03CEDCF1000CCEF1004E38BF90
:10431000AEF1010EA6FB0C584FF000074FF0000560
:10432000E6FB0E87A1FB08C6A0FB07CE16EB0E0628
:1043300045F10005E1FB076515F1E04E7EBFA4F5F0
:1043400080345FEA46066D4116F1800745F10005AD
:104350004FEA17274FEA066647EA0567A6F1DE46E9
:10436000B6F1805F4FEA15251FD9384624F0010CBD
:1043700005EBC471BCF1FE6F01EB0C1102D8F0BC6F
:10438000BDE8008124425CBF01F5801E9EEAC47F27
:1043900002D4F0BCBDE80081244238D4F0BCA1F1C5
:1043A000C041BDE8004100F001BA4FEAD22242EA22
:1043B00043524FEAD323A7FB02864FEAD02040EABC
:1043C000415007FB03661EEA0E0F4FEAD12105FBA1
:1043D000026658BFA6EB0056B6EB00564FEA520EE7
:1043E0004EEAC37E18EB0E0E56EB530EBDD518EBFE
:1043F00002085E417F1C55F10005B6E74FF48015B9
:104400004FF000074FF000064FF00008ADE7F0BC9A
:104410004FF0000001F1C04101F00041BDE8008112
:1044200011EA0C1F0CEA131500D00CE013EA0C1F64
:1044300000F025804FF00000F0BC81EA030101F09C
:104440000041BDE80081F0BCBDE8004181EA030104
:1044500000F0ACB9F0BCBDE8004170B500F058F90F
:10446000097EFC3E00F007B881EA03014FF000002E
:1044700001F00041704781EA030100F097B9F0BCF8
:10448000BDE800414FF0000021497047FFFDFBF9F6
:10449000F7F5F4F2F0EEEDEBE9E8E6E4E3E1E0DE77
:1044A000DDDBDAD8D7D5D4D3D1D0CFCDCCCBCAC8E9
:1044B000C7C6C5C4C2C1C0BFBEBDBCBBBAB9B8B710
:1044C000B6B5B4B3B2B1B0AFAEADACABAAA9A8A803
:1044D000A7A6A5A4A3A3A2A1A09F9F9E9D9C9C9BD1
:1044E0009A9999989797969595949393929191907C
:1044F0008F8F8E8E8D8C8C8B8B8A8989888887870D
:104500008685858484838382828181800000FF0781
:104510000000F87F10F0004248BF4042B0FA80F33C
:1045200010FA03F10AD0C3F11D0303F580634FEACB
:10453000415002EB035202EBD12170474FF00000D3
:104540007047000051EA030C17D41CF5801F58BFB8
:10455000BCF5801F00F10680994218BF704708BF64
:104560009042704707D711F5801F58BF13F5801F81
:1045700019D499427047894270471CF5801F08D5AD
:10458000BCF5801FF7D58B4218BF704708BF824229
:1045900070474FF4001C1CEB410F38BF1CEB430F5E
:1045A00001D28B42704770B500F0B2F892244900F6
:1045B0004FF000514FF08053FFF748BEDFF848C17D
:1045C00070B51CEA111E1EBF1CEA13159EEA0C0FE3
:1045D00095EA0C0F00F06F8081EA030423EA4C1384
:1045E0004EEAD47E21EA4C1141F4801143F4801349
:1045F000AE44A1FB024CA0FB0365AEF17F7E3619F1
:1046000055EB0C05A1FB034C4CF10003A0FB021C75
:1046100016EB0C06654153F10003094218BF46F042
:10462000010613F4007F0BD14FEA03314FEA053046
:10463000340341EA155140EA16506FF003020AE0D4
:104640004FEAC3214FEAC520F40241EA555140EA3E
:1046500056506FF0020202EB2E4201EB025585EA42
:10466000CE710AD05FEA440C18BF24F0004450F128
:10467000000041F1000120EAD47040F2FE7C624566
:1046800000D270BDA84214BF4FF080444FF04044A8
:10469000002E08BF0024BEF1806FA8BFA1F1C04169
:1046A000BDE8704080F282804FF0000001F1C0410F
:1046B00001F0004170479EEA0C0F0CEA131518BF79
:1046C00095EA0C0F06D04FF0000081EA030E0EF0C1
:1046D000004170BD00F01CF88900013E00F007B8F1
:1046E00000F009B84FEA430C5FEA5C5C08D081EA4D
:1046F000030100F05BB84FEA410C5FEA5C5CF6D165
:104700004FF00000014970470000FF070000F87FEC
:104710000EF1020E2EF0030E5EF8046B364205D445
:10472000012A43EB030515F5001F12D8012841EBC0
:10473000010C1CF5001F0CD80ED14FEAD17C15F5E9
:10474000001F0CEB4C0C0CF1020C08BF4CEBD37CA3
:1047500004E04FF0080C01E04FEAD37C0CEB4C0571
:1047600026FA05F606F00706B6F1040C06D20EEBA3
:10477000860CBDE870404CF0010C6047DFE80CF09F
:10478000090B02024FF000414FF00000A1F500219B
:1047900070BD19461046012851EB010418BFD4F52D
:1047A000001484BF002001F0004170BD0808A0F58E
:1047B00000114FEA3101704753EA010C17D41CF580
:1047C000801F58BFBCF5801F00F106808B4218BFC8
:1047D000704708BF8242704707D713F5801F58BF44
:1047E00011F5801F19D48B4270479B4270471CF50E
:1047F000801F08D5BCF5801FF7D5994218BF7047B8
:1048000008BF904270474FF4001C1CEB430F38BFA9
:104810001CEB410F01D2994270470FB40CBC03BC92
:10482000FFF7C1BE91EA030F10B581F000413FF5DB
:1048300065AC83F0004300F0EFB800002DE9F041D3
:1048400001F5801CBCF5001FC0F2C3804FEA115C6B
:1048500021EA0C510CF1FD0C41F480115FEA5C0C73
:104860000CF5C07C01D3400049413DA4890241EAD6
:10487000905187028E0E0A0CA45D04FB04F602FB25
:1048800006F6C6F14046A4FB0662F60D46EA42264D
:1048900006FB06F4A4FB01235242C3F1404338BF98
:1048A0005B1EA6FB02420024E6FB0324D20B42EA75
:1048B0004446A6FB0623A1FB02E2A3FB07E4A418DF
:1048C0004FF0000252F10002E3FB01426442C2F1E8
:1048D000404E38BFAEF1010EA6FB04234FF000029C
:1048E000E6FB0E32A2FB03464FF00004B61954F16A
:1048F0000004E2FB0264A1FB06E6A4FB07E816EB5A
:1049000008064FF0000858F10008E4FB0168764201
:10491000C8F1405838BFA8F10108A2FB06E4A3FB88
:1049200008E52D194FF0000454F10004E2FB08548F
:10493000A1FB05E6A7FB04E818EB06084FF000060C
:1049400056F10006E1FB048618F1200556F1000639
:10495000A809A8F11B08B10908F03F08B8F10A0F2F
:1049600040EA86601CD901EB0C51BDE8F08100BF24
:10497000FCF5EEE8E2DDD8D3CFCBC7C3C0BDB9B6F6
:10498000B4B1AEACA9A7A5A3A19F9D9B9A989695FB
:104990009392908F8D8C8B89888786858483828182
:1049A000A0FB006800FB01F208EB4208B8EB872887
:1049B00007D5341858EB0104D5D5401C51F100013E
:1049C000D1E7341A78EB0104CDD4401E71F1000117
:1049D000C9E75FEA4C0C5FEA9C5C0DD105D34FF050
:1049E000000001F00041BDE8F081BDE8F04170B584
:1049F000FFF78EFE6DDBFFBEBDE8F0414FF000001B
:104A0000004970470000F87F10B591EA030F48BFD6
:104A100083F000433FF572AB841A71EB030C07D2AD
:104A200012198CF0004C43EB0C03001B61EB0C01E2
:104A3000DFF8A4E14FEA1154A4EB135C1EEA430F24
:104A400018BF9EEA445F00F0B08023EA6E03524232
:104A500021EA0451C3EB6E0338BF5B1EDCF1200E6C
:104A600025D322FA0CFE10EB0E0043FA0CFE41EBAC
:104A70000E01CCF1200E03FA0EFE10EB0E0051F1E8
:104A80000001CCF1200E29D412FA0EF201EB0451F0
:104A9000BDE8104058BF7047401C1CBFB2F1004F2A
:104AA000704700280CBF491C20F00100704712EB32
:104AB000020E43EB030218BF4FF0010E4EEA420212
:104AC000ACF1200CDCF11E0E54D943FA0CFE10EBB5
:104AD0000E0051F1FF31CCF11E0ED5D50EF1010EB5
:104AE00012FA0EFE404141EB010101EB445C5FEA2A
:104AF0005C5C10D910EBDE7001EB045138BFBEF1E5
:104B0000004FBDE8104018BF704700280CBF491C7B
:104B100020F00100704730D24FEAD42C11F500117B
:104B200024F400641BD0B1FA81F20B3AA41AA41E3B
:104B3000D2F12003914030FA03F31943904001EB86
:104B4000CC71002C01EB0451BDE81040A8BF7047A8
:104B500001F1C0414FF0000001F000417047B0FA90
:104B600080F310FA03F100D110BDE41A173C480598
:104B7000C90AE4E701EB045110BD491001EB0451EF
:104B8000BDE810404FEA300002E04FF000017047EE
:104B90004A0008BF0042F8D0B2F5001F28BF704796
:104BA00001F000414FF0000070479EEA445F07D0DB
:104BB00011EA5E0FBDE8104004BF002100207047DD
:104BC000BDE8104070B5FFF7A3FD00BF40DFF63E23
:104BD00083F00041104670470000E0FF43004FEAB9
:104BE000D30C4FEA3C0C43401FBF40070CF160510F
:104BF00013F0FE4F70471CF0006F03D100200CF043
:104C0000004170470CF0004343EA507010B540EA91
:104C1000CC0000F00EF800BF000000924FEA000147
:104C2000FFF7C4BD4FF000414FF00000A1F5002197
:104C300070470EF1020E2EF0030E5EF8044B244274
:104C400004D44FEA4102B2F17F4F11D84FEA40033A
:104C5000B3F17F4F0CD80ED14FEAD07CB2F17F4F29
:104C60000CEB4C0C0CF1020C08BF4CEBD17C04E0BB
:104C70004FF0080C01E04FEAD17C0CEB4C0324FA16
:104C800003F404F00704B4F1040C06D20EEB840C18
:104C9000BDE810404CF0010C6047DFE80CF007085D
:104CA00002024FF00040A0F5800010BD084642000F
:104CB00018BFD2F1807288BF00F0004010BDFF2104
:104CC00041EAD050C0057047FBF753BD0CF00F030D
:104CD000092B08BF082000F059800A2B0BD0082BA5
:104CE00018BF704708BF1CF0400F0AD04FF00000FB
:104CF0004FF0000170471CF0400F18BF4FF000400C
:104D000070471CF0100F08D020F0704300F07F4275
:104D100042EAD3014FEA4370704700F0604021F04F
:104D20007F4242EA000201F07F4040EA7270704721
:104D30004FF0FF0C4CF4E06C1CEA11531CBF9CEAD2
:104D4000030C9445C2BFDA4201EB02517047002BBD
:104D50000DD0BCF1000F0FD0002A01F00041A4BF1C
:104D600041F0E04141F07F614FF00000704701F0F9
:104D700000414FF00000704750EA01334FF09B0CA8
:104D800018BF4CF0806C7FF459AA70471CF4801F48
:104D900011D01CF4E02F03D06FEACC3149007047EA
:104DA0004FF04050EFF3008222F0704242EA0002DE
:104DB00082F3008870474FF0000070470000010048
:104DC00002000100030001000200010004000100D4
:104DD00002000100030001000200010005000100C3
:104DE00002000100030001000200010004000100B4
:104DF00002000100030001000200010006000100A2
:104E00000200010003000100020001000400010093
:104E10000200010003000100020001000500010082
:104E20000200010003000100020001000400010073
:104E30000200010003000100020001000700010060
:104E40000200010003000100020001000400010053
:104E50000200010003000100020001000500010042
:104E60000200010003000100020001000400010033
:104E70000200010003000100020001000600010021
:104E80000200010003000100020001000400010013
:104E90000200010003000100020001000500010002
:104EA00002000100030001000200010004000100F3
:104EB00002000100030001000200010001000000E7
:104EC0007856341201001000010018008001010022
:104ED0000100100014000200050001003F00010065
:104EE0000100050001001800780001000400010025
:104EF0000400180008000100040001000100010086
:104F00008000010016000100010080000100010086
:104F1000010040005800E8030100230100001000D8
:104F2000010008000A0000000000000000007E0FE1
:104F30000400000800000000000000020001000062
:104F40001000000000000000000000000000F03F22
:104F5000000000000000F83F00000000000000001A
:104F60000000004003B8E23F000000000000000025
:104F700006D0CF43EBFD4C3E033333333333E33FB3
:104F8000FFAB6FDBB66DDB3F4D268F515555D53FDF
:104F900001411DA96074D13F65DBC9934A86CD3FAD
:104FA000EF4E454A287ECA3F3E5555555555C53F9B
:104FB00093BDBE166CC166BF2CDE25AF6A56113F8D
:104FC000F16BD2C541BDBBBED0A4BE726937663E8F
:104FD000000000000000000002400000000000A0EF
:104FE0000000000005400000000000C800000000B4
:104FF0000C4000000000409C000000001940000030
:105000000020BCBE0000000034400000BFC91B8E61
:1050100000000004B5400000504BCFD06607E2CF3F
:10502000010000006C4100003E8251AADFEEA7346F
:1050300001000000D9420000DCB5A0E23A301F9721
:10504000FFFFFFFFB4450000FD25A0C8E9A3C14F45
:10505000FFFFFFFFFF3F0000000000800000000096
:10506000FF3F00000000008000000000A850000882
:1050700000000020800000006C010008285100089A
:105080008000002098290000880100081C00000012
:1050900043000000F8FFFFFF0C0000000E000000BE
:1050A0000F0000002E0000000000000000000000C3
:1050B0000000000000A24A04000000000000000000
:1050C00001020304060708090000000001020304AE
:1050D0000102030406070809020406080000000094
:1050E00000000000000000000000000000000000C0
:1050F00000000000000000000000000000000000B0
:10510000000000000000000000000000000000009F
:10511000000000000000000000000000000000008F
:08512000000000000000000087
:0400000508000131BD
:00000001FF
